:020000040800F2
:10000000480800209D010008E50A0008DD0A0008F4
:10001000E10A0008CD090008691500080000000089
:10002000000000000000000000000000D50F0008E4
:10003000D109000800000000510F0008ED10000871
:10004000B7010008B7010008B7010008B7010008B0
:10005000B7010008B7010008B7010008B7010008A0
:10006000B7010008B7010008B7010008B701000890
:10007000B7010008B7010008B7010008B701000880
:10008000B7010008B7010008B7010008B701000870
:10009000B7010008B7010008B7010008B701000860
:1000A000B7010008B7010008B7010008B701000850
:1000B000B7010008B7010008E1120008B701000805
:1000C000B7010008B7010008B7010008B701000830
:1000D000B7010008B7010008B7010008B701000820
:1000E000B7010008B7010008B7010008B701000810
:1000F000B7010008B7010008B7010008B701000800
:10010000B7010008B7010008B7010008B7010008EF
:10011000B7010008B7010008B7010008B7010008DF
:10012000B7010008B7010008B7010008B7010008CF
:10013000B7010008B7010008B7010008B7010008BF
:10014000B7010008B7010008B7010008B7010008AF
:10015000B7010008B7010008B7010008B70100089F
:10016000B7010008B7010008B7010008B70100088F
:10017000B7010008B7010008B7010008B70100087F
:10018000B7010008B7010008DFF80CD000F0FCFA56
:1001900000480047D51E0008480800200648804750
:1001A00006480047FEE7FEE7FEE7FEE7FEE7FEE75C
:1001B000FEE7FEE7FEE7FEE72D11000889010008D3
:1001C0002DE9FE4F804681EA0300C00F0C460090E7
:1001D00021F0004123F00045B8EB0200A94105D20F
:1001E0004046214690461C460B46024623F00040FE
:1001F000104347D0270DC7F30A00C3F30A510290FA
:10020000401A019040286BDAC3F3130040F4801BBE
:100210000098924620B10023D2EB030A63EB0B0B4C
:1002200001985946C0F14002504600F058F9064680
:100230000D4650465946019A00F060F910EB08004F
:100240006141002487EA115284EAE7731A4340D0DF
:10025000009A62B3019A012A4FEA075215DC001B8B
:1002600061EB02014FF0004202EA0752CDE9004281
:10027000001C41F5801132462B4600F097F903B07F
:10028000BDE8F08F40462146F9E7001B61EB020113
:10029000001C41F5801300185B412018A2F50017DF
:1002A00047EB030140EAD570B6196D4111E06D08C6
:1002B0004FEA360645EAC0754FEA0752001B61EB6C
:1002C0000201001C41F5801149084FEA3000001975
:1002D000514132462B4603B0BDE8F04F00F057B90C
:1002E0000098012240000023D0EB020263EBE07390
:1002F000009821464FEAE074B8EB000061EB04017E
:10030000E9E783F000435BE781F0004158E72DE91E
:10031000FE4F81EA030404F0004421F00041009400
:100320004FF0000B23F0004350EA01045ED052EA84
:1003300003045BD0C3F30A54C1F30A552C44A4F25E
:10034000F3340194A0FB0254C1F3130141F4801172
:10035000C3F3130343F4801301FB024400FB034E79
:10036000840A970A44EA815447EA8357A4FB076842
:1003700002958D0A05FB07854FEA932C04FB0C546C
:100380002705029D4FEA065847EA1637B5EB0805E0
:100390006EEB070C870E920E47EA811742EA831232
:1003A000A7FB0201B6EB0B0164EB00042B0D43EA43
:1003B0000C335E1844EB1C50DA465146E7FB020151
:1003C000C5F313044FEA0B3343EA14534FEA0432E4
:1003D000019C43EA0603A4F10C040294009CCDE9BD
:1003E00000B400F0E3F803B0BDE8F08F0020014650
:1003F000F9E700F0004230F000400AD0C10D01F5ED
:100400006071C0F3160042EA0151C208400711436F
:10041000704700200146704701F0004330B421F0DE
:10042000004150EA010206D00A0DA2F56072C1F344
:100430001301002A02DC30BC00207047440F44EA5C
:10044000C104C100E01830BC00EBC25000F068B835
:1004500030B50B46014600202022012409E021FA94
:1004600002F59D4205D303FA02F5491B04FA02F591
:100470002844151EA2F10102F1DC30BD2DE9F05F28
:100480000546002092469B46884606468146402403
:100490001BE0284641464746224600F087F953466E
:1004A0005A46C01A914110D311461846224600F010
:1004B00016F82D1A67EB01084F462246012000214D
:1004C00000F00DF817EB00094E41201EA4F10104C5
:1004D000DFDC484631462A464346BDE8F09F202AE5
:1004E00004DB203A00FA02F1002070479140C2F18B
:1004F000200320FA03F3194390407047202A06DBBB
:10050000CB17203A41FA02F043EAE07306E041FAE1
:1005100002F3D040C2F120029140084319467047CF
:100520000029A8BF7047401C490008BF20F0010007
:10053000704710B4B0FA80FC00FA0CF050EA0104E5
:1005400004BF10BC704749B1CCF1200421FA04F477
:1005500011FA0CF118BF012121430843A3EB0C0150
:10056000CB1D4FEA00614FEA102042BF002010BCB3
:10057000704700EBC35010440029A4BF10BC704763
:10058000401C490008BF20F0010010BC704710B5A6
:10059000141E73F1000408DA401C41F100019218A6
:1005A0005B411A4301D120F0010010BD2DE9F04D4F
:1005B00092469B4611B1B1FA81F202E0B0FA80F2A4
:1005C00020329046FFF78BFF04460F4640EA0A00B0
:1005D00041EA0B0153465A46084313D0114653EAE9
:1005E000010019D0C8F14002504600F0DFF805467E
:1005F0000E46504659464246FFF771FF084305D064
:10060000012004E020463946BDE8F08D0020054376
:1006100046EAE0762C4337430A986305E40AA0EBE8
:1006200008000022FD0A44EA47540A3002D500209F
:100630000146E9E7010510196941DDE9084500199E
:100640006941BDE8F04DA2E72DE9F04D81EA0304D0
:1006500004F0004B21F0004514464FF0000A23F04F
:10066000004150EA050220D054EA01021DD0C5F332
:100670000A570246C5F31303C1F31300C1F30A5628
:1006800040F4801543F48013A7EB0608101BD646F0
:1006900008F2FD3873EB050002D308F1010801E010
:1006A00092185B41B8F1000F03DA00200146BDE863
:1006B000F08D00204FF48011064684460EE0171B93
:1006C00073EB050705D3121B63EB050306434CEAE6
:1006D000010C49084FEA300092185B4150EA0107CB
:1006E000EDD152EA030012D082EA040083EA050148
:1006F000084305D0101BAB4106D20122002306E0BF
:1007000000224FF0004302E06FF0010253101AEB99
:1007100006004CEB085110EB0A0041EB0B01BDE861
:10072000F04DFFF734BFC1F30A52C1F3130140F299
:10073000FF3341F480119A4202DA002001467047EB
:1007400040F233439A42A2F2334202DC524200F0BA
:100750002DB8FFF7C4BE000030B5041E71F10004CF
:1007600004DB4FF00044404264EB0101141E73F1BE
:10077000000405DB1C464FF00043524263EB0403C8
:10078000994208BF904230BD064C074D06E0E06834
:1007900040F0010394E8070098471034AC42F6D3C8
:1007A000FFF7F6FC3049000850490008202A04DB16
:1007B000203A21FA02F00021704721FA02F3D040DA
:1007C000C2F12002914008431946704721B1826866
:1007D00042F00102826003E0826822F0010282603E
:1007E000704700000021084A1168084A1140D0E90A
:1007F00000231A4383681A43C3681A431143044A07
:10080000C2F804137047000004230140E030FCFFED
:10081000002001400146C86C80B2704702460020AB
:1008200013680B400BB1012000E00020704700006E
:1008300030B50246002000235068104C20400D794E
:100840000C6844EA05242043506090680C4C20401A
:10085000D1E903542C438D682C434D7944EA450477
:1008600020439060D06A20F470000C7D641EE4B2D6
:10087000234340EA0350D06230BD0000FFFEFFFC7E
:10088000FDF7FFC0F0B504460D4600200021092DFC
:1008900011DDE068A5F10A0606EB4607072606FA11
:1008A00007F18843A5F10A0606EB460603FA06F1AE
:1008B0000843E0600CE0206905EB4507072606FACF
:1008C00007F1884305EB450603FA06F1084320616A
:1008D000072A0FDA606B561E06EB86071F2606FAFC
:1008E00007F18843561E06EB860605FA06F1084313
:1008F000606322E00D2A0FDA206BD61F06EB860715
:100900001F2606FA07F18843D61F06EB860605FA6E
:1009100006F10843206310E0E06AA2F10D0606EB41
:1009200086071F2606FA07F18843A2F10D0606EB9B
:10093000860605FA06F10843E062F0BD816841F0E1
:10094000804181607047000000B58DB001210846EC
:1009500000F000FB0121080200F01CFB20200B909E
:1009600003208DF8300000208DF833000BA91548C6
:1009700000F02FF80121080200F01CFB00214FF4C9
:10098000807000F017FB002007900A9009904FF448
:100990008030089007A8FFF725FF002001908DF810
:1009A00008008DF809000390059001208DF81800CB
:1009B00001A90548FFF73CFF01210348FFF706FFA7
:1009C0000DB000BD000002400020014000BFFEE766
:1009D0007047F0B50A4600210023002400BF3DE027
:1009E000012505FA01F3156805EA03049C4234D198
:1009F00005684F000326BE40B543056015794E00DB
:100A0000B5400668354305601579012D02D015798A
:100A1000022D16D185684F000326BE40B543856080
:100A200055794E00B5408668354385604568012696
:100A30008E40B5434560456896798E40B6B23543E1
:100A40004560C5684F000326BE40B543C560D579F3
:100A50004E00B540C6683543C560491C1029BFD358
:100A6000F0BDF0B5002300244D07ED0E02FA05F3AA
:100A7000CE1000F1200555F826504E07F70E0F2630
:100A8000BE40B543CF1000F1200646F82750CE10E7
:100A900000F1200555F8265045EA0304CE1000F178
:100AA000200545F82640F0BD0183704710B5044687
:100AB0000723012221460848FFF7E4FE0648FFF716
:100AC0003DFF00BF02210448FFF7A8FE0028F9D02F
:100AD0000148FFF79FFE10BD0020014000BFFEE768
:100AE00000BFFEE77047000070B5002100230F2211
:100AF000C4781CB3174C246804F4E064C4F5E064C3
:100B0000C4F30721C1F10404E3B20A4144789C40D4
:100B1000E1B28478144021430C07210E0E4C057875
:100B20006155047804F01F050124AC4005786D116F
:100B3000AD0005F1E025C5F8004109E0047804F0B6
:100B40001F050124AC40054D0678761145F8264076
:100B500070BD00000CED00E000E400E080E100E08A
:100B600002490143024A1160704700000000FA0583
:100B70000CED00E030B500240CE0002506E000207C
:100B8000074901EBC5010855681CC5B2802DF6DB8D
:100B9000601CC4B2082CF0DB00F0D0F830BD0000BF
:100BA00048000020F0B5144600267F2801DC3F29CC
:100BB00000DDF0BD0B46CF1701EB5777FF10C7F1F3
:100BC0000707FAB2CF1701EB5777FF10A1EBC70762
:100BD000FDB2C5F107070123BB40DEB24CB10A4BA1
:100BE00003EBC0039B5C3343074F07EBC007BB54C9
:100BF00008E0054B03EBC0039B5CB343024F07EBDC
:100C0000C007BB5400BFD4E7480000201CB5012139
:100C1000082000F09FF901208DF80400F8200090D2
:100C200003208DF8050000208DF8060001208DF8C6
:100C3000070069463E48FFF7CCFEF8213C48FFF725
:100C400033FF01203B490860642001F001F90020D6
:100C50003949C1F89002642001F0FAF801203549C1
:100C600008600021AE2000F045F90021D52000F0F9
:100C700041F90021502000F03DF90021A82000F0AA
:100C800039F900213F2000F035F90021D32000F090
:100C900031F90021084600F02DF90021402000F034
:100CA00029F900218D2000F025F90021142000F001
:100CB00021F90021202000F01DF90021022000F080
:100CC00019F90021A12000F015F90021C02000F041
:100CD00011F90021DA2000F00DF90021122000F0B6
:100CE00009F90021812000F005F90021EF2000F032
:100CF00001F90021D92000F0FDF80021F12000F0D9
:100D0000F9F80021DB2000F0F5F80021302000F098
:100D1000F1F80021A42000F0EDF80021A62000F059
:100D2000E9F80021AF2000F0E5F8FFF723FF1CBD34
:100D3000000C0240908241420080414230B50024C4
:100D40001CE004F1B001C8B2002100F0D3F800218A
:100D5000084600F0CFF80021102000F0CBF8002565
:100D600008E0084901EBC501085D012100F0C2F867
:100D7000681CC5B2802DF4DB601CC4B2082CE0DB1B
:100D800030BD0000480000202DE9F84F80460F4696
:100D900016461C46BA462046E31704EB5373DB1095
:100DA00021464FEAE47C04EB5C7C4FEAEC0CA4EBBC
:100DB000CC0CBCF1000F02D04FF0010C01E04FF061
:100DC000000C6344224604EBD27C4FEA6C0C03FB1C
:100DD0000CF303F0FF0BA6F12000C6B200254EE095
:100DE0000C2C07D106EB4600274901EB8000405D43
:100DF000009013E0102C05D1244800EB0610405D54
:100E000000900BE0182C07D106EBC600204901EB3F
:100E10008000405D009001E0BDE8F88F4FF00009D0
:100E200027E0009800F0800028B1394640460A9A31
:100E3000FFF7B8FE09E00A9808B9012000E0002099
:100E4000024639464046FFF7ADFE00984006000EC8
:100E50000090781CC7B2A7EB0A00A04205D1574604
:100E600008F1010000F0FF0806E009F1010000F0C0
:100E7000FF09B9F1080FD4DB00BF681CC5B25D459E
:100E8000AEDB00BFC8E70000B03000082435000822
:100E9000143B0008F8B506460F4615461C4621E0EF
:100EA00004EBD4714910C1F18001B14202DA00268D
:100EB0003819C7B2C4F14000B84204DA002006462F
:100EC0000746FFF757FE012000902A78234639464F
:100ED0003046FFF759FF204604EBD07106EB610165
:100EE000CEB26D1C28787E2802DC28782028D7DA3C
:100EF000F8BD000010B5144B19600023134CC4F862
:100F00008C32002216E000230F4C241D236000F0D9
:100F100080031BB10123241D236003E000230A4C3E
:100F2000083423600123084C241D23604306180E57
:100F3000531CDAB2082AE6DB0123034C083C236089
:100F4000024CC4F8943210BD948241420080414268
:100F50007047000029B1064A12680243044B1A6028
:100F600004E0034A12688243014B1A607047000094
:100F70003038024029B1064A12680243044B1A6015
:100F800004E0034A12688243014B1A607047000074
:100F90004038024029B1064A12680243044B1A60E5
:100FA00004E0034A12688243014B1A607047000054
:100FB0004438024029B1064A12680243044B1A60C1
:100FC00004E0034A12688243014B1A607047000034
:100FD00024380240704700000CB5002001900090BA
:100FE0003448006840F480303249086000BF31481E
:100FF000006800F4003000900198401C01900098B7
:1010000018B90198B0F5A04FF1D12A48006800F452
:10101000003010B10120009001E000200090009805
:10102000012846D123484030006840F080502149D3
:10103000403108602048006840F440401E49086084
:101040001C48083000681B490831086008460068E1
:1010500040F4004008600846006840F4A050086072
:101060001648091F0860081F006840F08070091FBB
:10107000086000BF0F48006800F000700028F9D039
:1010800040F205700E4908600A480830006820F0F8
:1010900003000849083108600846006840F0020073
:1010A000086000BF03480830006800F00C00082802
:1010B000F8D10CBD003802400070004008544007D1
:1010C000003C0240042808D14FF0E021096941F0BA
:1010D00004014FF0E022116107E04FF0E0210969BF
:1010E00021F004014FF0E0221161704770470000C9
:1010F00010B504466FF00400FFF7E4FFE11704EBBE
:101100005171C1F3C701074A11701046007800EB16
:101110004001C1EBC0104FF6FF7101EAC000024967
:10112000088010BD440000204600002010B515487E
:10113000006840F47000134908601348006840F0EC
:1011400001001149086000200F49083108600E486D
:1011500000680E4908400C4908600D48091D0860E8
:10116000081F006820F48020091F0860002006493D
:101170000C310860FFF730FF4FF000600149803903
:10118000086010BD88ED00E000380240FFFFF6FE69
:101190001030002400B58BB001210846FFF7DAFEBD
:1011A00001210846FFF7F6FE012208212348FFF738
:1011B00058FC4FF48070099002208DF8280003201D
:1011C0008DF8290000208DF82A0001208DF82B00D1
:1011D00009A91A48FFF7FDFB0020ADF81800ADF88B
:1011E0001A0040F28F6007900020ADF8200006A999
:1011F000134800F077F96020ADF804000120ADF845
:1012000006000220ADF8100001A90D4800F020F9F9
:1012100008210B4800F05AF90020ADF81400012114
:10122000074800F0D1F80121054800F0DCF8012161
:10123000034800F0E4F80BB000BD000000000240DD
:101240000000014030B58BB005460C46012102205C
:10125000FFF780FE01210220FFF78CFE022204210D
:101260001D48FFF7FEFB02208DF8080010200190BA
:1012700003208DF8090000208DF80A0001208DF868
:101280000B0001A91448FFF7A4FB0995ADF8204015
:101290000020ADF82800ADF8220008A90F4800F0A2
:1012A00021F96020ADF80C000020ADF818000120F5
:1012B000ADF80E0003A9094800F0CAF80821074854
:1012C00000F004F90121054800F07EF801210348EF
:1012D00000F089F80BB030BD00040240000400406B
:1012E00010B50121194800F099F848B31848006872
:1012F0001749086008460068401C086008460068F6
:10130000B0F57C7F01D3002008601248104A1268B3
:1013100050F82210104800F0E2F810480068B42895
:101320000ED20B48006840F2E731884208D10B48E2
:1013300001680068401C094B1860094800F0CFF8AC
:101340000121024800F04CF810BD000000080040E8
:1013500000000020F02000080000014004000020F0
:10136000000400407FB505460C4601210420FFF72C
:1013700001FE0295ADF804400020ADF80C00ADF878
:10138000060001A90F4800F0ADF8012211460D48F2
:1013900000F055F801210B4800F022F81E208DF8CE
:1013A000000002208DF8010003208DF802000120CA
:1013B0008DF803006846FFF797FB0121014800F014
:1013C00012F87FBD0008004021B1028842F080027F
:1013D000028004E002884FF67F731A400280704753
:1013E000CA430282704721B1028842F001020280A2
:1013F00004E002884FF6FE731A400280704731B154
:10140000B0F8442042F40042A0F8442005E0B0F8CF
:101410004420C2F30E02A0F84420704730B50246C3
:10142000002000230024158A05EA0103958905EAB6
:10143000010413B10CB1012000E0002030BD1AB14D
:1014400083890B43838102E083898B4383817047C7
:1014500070B5002400220023058C4FF6FE7635403F
:101460000584028C8388048B4FF68F752C40B51E43
:101470002C400D882C43751E2A408D892A434D88A7
:101480002A43104DA84202D00F4DA84213D14FF667
:10149000F7752A40CD892A434FF6FB752A408D887F
:1014A0002A434FF6FF652B404FF6FF552B400D8A20
:1014B0002B434D8A2B43838004838D6845630284CC
:1014C00070BD000000000140000401400A460021F8
:1014D000018B4FF6F7731940114301837047416345
:1014E0007047000000220288184B98420ED0184B1B
:1014F00098420BD0B0F1804F08D0164B984205D0DF
:10150000154B984202D0154B984204D14FF68F7379
:101510001A404B881A43124B984207D0114B9842FD
:1015200004D04FF6FF431A400B891A4302804B68E0
:10153000C3620B880385054B984202D0044B984246
:1015400001D18B7A0386012383827047000001401A
:10155000000401400004004000080040000C00406E
:10156000001000400014004000BFFEE70FB4084B1D
:1015700010B504A902AA039800F0CEF8044602A907
:10158000002000F060FC204610BC5DF814FB000059
:10159000471E000802E008C8121F08C1002AFAD13D
:1015A00070477047002001E001C1121F002AFBD1E3
:1015B000704700002DE9FF5FDDE90220010DDDF835
:1015C00038B0024318D044F61050A1F2FF31414325
:1015D0000D140F98012820D0A5EB0B00401C5FEAEA
:1015E000000A4FF00004474EDFF81C91A046504619
:1015F00016D5CAF1000728E00F98012443A201285C
:1016000008D0002100980F9BC0E90021C0E90243E7
:10161000BDE8FF9F6FEA0B01F4E7CBF10000DEE7C6
:10162000074612E0F80707D02246334640464946AF
:10163000FEF76DFE8046894622463346104619461F
:10164000FEF765FE04460E467F10002FEAD1DDE965
:101650000201BAF1000F42464B4602DAFEF757FE8E
:1016600001E0FEF7F1FF04460E460022284BFFF78B
:1016700073F803D84FF0FF30014607E00022254BF6
:1016800020463146FEF79CFDFFF74DF8102409E097
:10169000002C0ADB0A220023FEF7F0FE019B303209
:1016A0001A55641E50EA0102F2D1641C019AC4F179
:1016B000110314440F9A012A03D0012208430DD1CB
:1016C0000AE0084304D000204FF0110B0F9080E790
:1016D000A3EB0B056D1E0DE05B4504DD4FF0000232
:1016E00005F1010504E003DA4FF00002A5F1010560
:1016F000002AECD000980F99C0E90231C0E90045FA
:1017000086E70000000024400000F03F30000000A9
:101710000000F0430000E03F2DE9FF4F95B09B46ED
:101720008946064600250FE2252877D10024274662
:10173000F84A0121059400E0044316F8013F203BDC
:1017400001FA03F01042F7D130782A2811D06FF057
:101750002F033078A0F13002092A16D8059A44F0F8
:10176000020402EB820203EB42021044761C059055
:10177000EFE759F8042B0592002A03DA504244F4AB
:101780000054059044F00204761C30782E2816D1BF
:1017900016F8010F44F004042A280DD06FF02F0230
:1017A0003078A0F13003092B09D807EB870302EB4F
:1017B0004303C718761CF3E759F8047B761C30788E
:1017C0006C280FD006DC4C2817D068280DD06A286A
:1017D00014D104E0742810D07A280FD10DE044F41D
:1017E00000140AE044F4801401E044F440147278D8
:1017F000824202D104F58014761C761C307866286B
:101800000BD013DC582877D009DC002875D0452888
:10181000F6D04628F4D047281AD19DE118E0632875
:1018200035D0642879D0652812D195E1702873D01D
:1018300008DC6728F1D069286FD06E280DD06F289A
:1018400006D1B5E073282CD0752875D0782874D0CF
:101850005A46179990476D1C75E1C4F3025002284F
:1018600009D003280DD0D9F8001004280DD00D6040
:1018700009F1040967E1D9F80010EA17C1E900523B
:10188000F6E7D9F800100D80F2E70D70F0E719F8CF
:10189000041B8DF8001000208DF80100EA4601209D
:1018A00003E059F804AB4FF0FF3061074FF000013F
:1018B00002D40DE008F101018846B9420FDA8045F3
:1018C000F8DB1AF808100029F4D108E008F101014A
:1018D00088468142FADB1AF808100029F6D10598EB
:1018E0005B46A0EB080721463846179A00F094FAA9
:1018F000284400EB080507E04DE029E10DE01AF867
:10190000010B5A4617999047B8F10108F7D25B4688
:1019100021463846179A13E142E00A220092C4F3A6
:1019200002524FF0000A022A08D059F804CB032AC9
:101930004FEAEC710AD00DE029E02AE009F1070135
:1019400021F00702F2E802C1914609E00FFA8CFC8F
:101950004FEAEC71042A03D14FFA8CFC4FEAEC7188
:10196000002907DA0A460021DCF1000C61EB0201D4
:101970002D2202E0220504D52B228DF8042001221D
:1019800003E0E20701D02022F7E7904659E00A2160
:1019900002E010220DE010214FF0000A00910BE050
:1019A00010224FF0000A44F004040827009203E0DC
:1019B00008224FF0000A0092C4F30252022A05D016
:1019C00059F804CB0021032A08D009E009F10701E6
:1019D00021F00702F2E802C1914605E01FFA8CFCF3
:1019E000042A01D10CF0FF0C4FF00008220728D583
:1019F000702806D0009B83F0100353EA0A0305D039
:101A00000EE040228DF80420012208E05CEA010289
:101A100006D030228DF804208DF805000222904671
:101A2000009B83F0080353EA0A030AD15CEA01022F
:101A300001D1620705D530228DF804204FF001084E
:101A40007F1E582804D034A003900EA802900DE009
:101A500036A0F9E753466046009AFEF70FFD84462C
:101A60000398825C0298401E029002705CEA0100BA
:101A7000F0D1029806A9081A00F1200A600702D5E1
:101A800024F4803400E00127574502DDA7EB0A006B
:101A900000E0002000EB0A01009005984144401A44
:101AA0000590E00306D45B462146179A059800F09E
:101AB000B3F90544002706E001A85A46C05D17990E
:101AC00090476D1C7F1C4745F6DBE0030CD55B4659
:101AD0002146179A059800F09FF9054404E030204C
:101AE0005A46179990476D1C0099481E009000298E
:101AF000F5DC08E0029802995A460078491C0291E8
:101B0000179990476D1CBAF10001AAF1010AF1DCA6
:101B100065E10000092801003031323334353637B1
:101B20003839616263646566000000003031323329
:101B300034353637383941424344454600000000C9
:101B400000F058F90544761C307800287FF4ECAD9D
:101B500019B02846BDE8F08F620700D4062709F1C6
:101B6000070222F0070CFCE80223E14603F00048DC
:101B70005FEA080C02D00FF2702C0DE05FEA045C03
:101B800002D50FF2682C07E05FEAC47C02D00FF2A6
:101B9000602C01E0AFF2700C4FF0FF3823F00043EF
:101BA000CDF850C065280CD006DC452809D0462861
:101BB0001DD047283DD13DE0662818D067287ED14A
:101BC00038E00021112F01DB112000E0781CCDE965
:101BD000000106A90EA8FFF7EDFCDDE90F010E9A42
:101BE00003910021009207F1010A04914DE04FF0AA
:101BF00000400097CDE9011006A90EA8FFF7DAFC16
:101C0000DDE90F0203920E9B11990022DDF80CA072
:101C10000093049211B9791C00EB010AB7EB0A009A
:101C200004D4C0F1FF3007F1010A0490AAEB0700C9
:101C3000019044E0012F00DA01270021112F01DD7E
:101C4000112000E03846CDE9000106A90EA8FFF7F3
:101C5000B1FCDDE90F010E9A03910021049100927D
:101C6000BA4621070CD40399514500DA8A46BAF1E5
:101C7000010F05DD009AAAF10101515C302908D05D
:101C8000B84202DA10F1040F06DA0121CDE90110A1
:101C900015E0AAF10101E9E7002805DC04990144F7
:101CA0000491AAEB000102E0411C514500DD8A4687
:101CB0000499401A401C01904FF000400290200708
:101CC00004D40198504501DBCDF8048000208DF844
:101CD0004F0002980DF14F07B0F1004F25D02B2097
:101CE0000E9002984FF0020800280CDA4042029051
:101CF0002D200E9007E00A210298FEF7A9FB303153
:101D0000029007F8011DB8F10001A8F10108F2DC0A
:101D100002980028EFD1791E0E980870307800F0F4
:101D2000200040F0450007F8020D12A8C01B00F18A
:101D300007081498007800B1012000EB0A0101980F
:101D400001EBE07105984144401A401E0590E00304
:101D500006D45B462146179A059800F05DF80544C5
:101D60001498007818B15A46179990476D1CE003F3
:101D700024D55B462146179A059800F04DF8054496
:101D80001CE00498002807DBDDE90301884203DD3D
:101D90000098405C179901E0179930205A46904707
:101DA000049805F10105401C04900198401E019023
:101DB00004D12E205A46179990476D1CBAF10001A4
:101DC000AAF1010ADDDC05E017F8010B5A46179964
:101DD00090476D1CB8F10001A8F10108F4DC5B46E6
:101DE0002146179A0598ABE62D0000002B00000055
:101DF000200000002DE9F041044600251E4617464C
:101E0000880404D405E039462020B0476D1C641EC8
:101E1000F9D52846BDE8F0812DE9F04104460025BA
:101E20001E469046C80301D5302700E020278804CD
:101E300004D505E041463846B0476D1C641EF9D50F
:101E40002846BDE8F0810A68531C0B60107070478B
:101E500070B504464FF4077094FBF0F0C6B24FF42F
:101E6000077094FBF0F100FB114085B205E04FF4E0
:101E7000077000F009F8701EC6B2002EF7D115B138
:101E8000284600F001F870BD0146114A12884A4305
:101E90004FF0E0235A6100229A611A46126942F01B
:101EA00001021A6100BF4FF0E022106900F0010248
:101EB0001AB100F48032002AF5D04FF0E022126906
:101EC00022F001024FF0E0231A6100229A6170476C
:101ED000460000202DED088B86B0A820FFF708F9FA
:101EE0004FF4A060FEF73CFE4FF4FA60FFF7B0FF3E
:101EF000FEF72AFDFEF78AFEFFF74CF9292140F292
:101F0000F310FFF79FF953211320FFF72BFA10234B
:101F10005DA200210846FEF7BDFF10235BA2002151
:101F20006820FEF7B7FFB4215948FFF7D8FAA9E0B7
:101F30000520FEF7BBFD57490860084690ED000AF2
:101F4000B8EE400A5448D0ED000A9FED541A00EE56
:101F5000810ADFED530A80EE201A80ED001A006836
:101F6000FEF747FA41EC1A0B9FED4E0B53EC102B8A
:101F7000FEF7CDF941EC190B9FED4C0B53EC102BF8
:101F8000FEF71EF941EC180BFEF746FA49490860C6
:101F900008460068FEF72DFA41EC190B9FED460B41
:101FA00053EC102BFEF7B0F941EC180BFEF734FAA6
:101FB0004349086043480068B42839D1084600689E
:101FC000FEF717FA41EC1B0B9FED3F0B53EC102B68
:101FD000FEF79DF941EC190B3D480068FEF709FA40
:101FE00041EC1A0B53EC192BFEF7EAF841EC180BF5
:101FF000FEF712FA36490860084690ED000ADFED58
:10200000350AB4EEE00AF1EE10FA03DD9FED310A75
:1020100080ED000A2E4890ED000ADFED2F0AB4EEA5
:10202000E00AF1EE10FA03D29FED2B0A80ED000AD0
:102030002A480068401C2949086008460068C828EA
:102040001DDD002008601B480068FEF7D2F941EC56
:10205000190B9FED230B53EC102BFEF752F941ECBB
:10206000180B53EC182B20A101A8FFF77FFA1023BF
:1020700001AA00212820FEF70DFFFEF75FFE0120D8
:10208000FFF7E6FE54E70000556F3A005661630023
:1020900000040040100000203400002000004743EE
:1020A000000048432B8716D9CEF7833F48E17A14C6
:1020B000AE47D13F1C0000209A99999999193E404A
:1020C0003C00002004000020295C8FC2F528AC3FB2
:1020D000400000200000E14300004842380000209A
:1020E0009A9999999999B93F252E33660000000075
:1020F000480300004B0300004E03000051030000A2
:1021000055030000580300005B0300005E0300005D
:102110006103000064030000670300006B0300001C
:102120006E030000710300007403000077030000D9
:102130007A0300007D030000800300008403000098
:10214000870300008A0300008D0300009003000055
:102150009303000096030000990300009C03000015
:10216000A0030000A3030000A6030000A9030000D1
:10217000AC030000AF030000B2030000B503000091
:10218000B8030000BB030000BE030000C103000051
:10219000C4030000C7030000CA030000CD03000011
:1021A000D1030000D4030000D7030000DA030000CD
:1021B000DD030000E0030000E3030000E60300008D
:1021C000E9030000EB030000EE030000F103000050
:1021D000F4030000F7030000FA030000FD03000011
:1021E00000040000030400000604000009040000CD
:1021F0000C0400000F04000012040000140400008E
:10220000170400001A0400001D0400002004000050
:102210002304000026040000280400002B04000012
:102220002E040000310400003404000036040000D5
:10223000390400003C0400003F0400004104000099
:102240004404000047040000490400004C0400005E
:102250004F04000051040000540400005704000023
:10226000590400005C0400005F04000061040000E9
:102270006404000067040000690400006C040000AE
:102280006E04000071040000730400007604000076
:10229000780400007B0400007D040000800400003E
:1022A0008204000085040000870400008A04000006
:1022B0008C0400008E0400009104000093040000D0
:1022C00095040000980400009A0400009C0400009B
:1022D0009F040000A1040000A3040000A604000065
:1022E000A8040000AA040000AC040000AF04000031
:1022F000B1040000B3040000B5040000B7040000FE
:10230000B9040000BC040000BE040000C0040000CA
:10231000C2040000C4040000C6040000C804000099
:10232000CA040000CC040000CE040000D004000069
:10233000D2040000D4040000D6040000D804000039
:10234000DA040000DC040000DE040000DF0400000A
:10235000E1040000E3040000E5040000E7040000DD
:10236000E8040000EA040000EC040000EE040000B1
:10237000EF040000F1040000F3040000F404000086
:10238000F6040000F8040000F9040000FB0400005B
:10239000FC040000FE040000000500000105000030
:1023A0000305000004050000060500000705000005
:1023B000080500000A0500000B0500000D050000DF
:1023C0000E0500000F0500001105000012050000B9
:1023D0001305000015050000160500001705000094
:1023E000180500001A0500001B0500001C05000070
:1023F0001D0500001E0500001F050000210500004E
:10240000220500002305000024050000250500002A
:10241000260500002705000028050000290500000A
:102420002A0500002B0500002B0500002C050000EC
:102430002D0500002E0500002F05000030050000CE
:1024400030050000310500003205000033050000B2
:102450003305000034050000350500003505000097
:10246000360500003705000037050000380500007C
:102470003805000039050000390500003A05000064
:102480003A0500003B0500003B0500003C0500004C
:102490003C0500003C0500003D0500003D05000036
:1024A0003D0500003E0500003E0500003E05000021
:1024B0003F0500003F0500003F0500003F0500000C
:1024C0003F050000400500004005000040050000F9
:1024D00040050000400500004005000040050000E8
:1024E00040050000400500004005000040050000D8
:1024F00040050000400500004005000040050000C8
:102500003F0500003F0500003F0500003F050000BB
:102510003F0500003E0500003E0500003E050000AE
:102520003D0500003D0500003D0500003C050000A4
:102530003C0500003C0500003B0500003B05000099
:102540003A0500003A050000390500003905000091
:102550003805000038050000370500003705000089
:102560003605000035050000350500003405000083
:10257000330500003305000032050000310500007E
:1025800030050000300500002F0500002E0500007A
:102590002D0500002C0500002B0500002B05000078
:1025A0002A05000029050000280500002705000075
:1025B0002605000025050000240500002305000075
:1025C00022050000210500001F0500001E05000077
:1025D0001D0500001C0500001B0500001A05000079
:1025E000180500001705000016050000150500007D
:1025F0001305000012050000110500000F05000082
:102600000E0500000D0500000B0500000A05000086
:10261000080500000705000006050000040500008D
:10262000030500000105000000050000FE04000095
:10263000FC040000FB040000F9040000F8040000A2
:10264000F6040000F4040000F3040000F1040000AC
:10265000EF040000EE040000EC040000EA040000B7
:10266000E8040000E7040000E5040000E3040000C3
:10267000E1040000DF040000DE040000DC040000D0
:10268000DA040000D8040000D6040000D4040000DE
:10269000D2040000D0040000CE040000CC040000EE
:1026A000CA040000C8040000C6040000C4040000FE
:1026B000C2040000C0040000BE040000BC0400000E
:1026C000B9040000B7040000B5040000B304000022
:1026D000B1040000AF040000AC040000AA04000034
:1026E000A8040000A6040000A3040000A104000048
:1026F0009F0400009C0400009A040000980400005D
:102700009504000093040000910400008E04000072
:102710008C0400008A040000870400008504000087
:1027200082040000800400007D0400007B0400009F
:1027300078040000760400007304000071040000B7
:102740006E0400006C0400006904000067040000CF
:1027500064040000610400005F0400005C040000E9
:102760005904000057040000540400005104000004
:102770004F0400004C04000049040000470400001E
:1027800044040000410400003F0400003C04000039
:102790003904000036040000340400003104000055
:1027A0002E0400002B040000280400002604000072
:1027B00023040000200400001D0400001A0400008F
:1027C0001704000014040000120400000F040000AD
:1027D0000C040000090400000604000003040000CB
:1027E00000040000FD030000FA030000F7030000EE
:1027F000F4030000F1030000EE030000EB0300000F
:10280000E9030000E6030000E3030000E00300002A
:10281000DD030000DA030000D7030000D40300004A
:10282000D1030000CD030000CA030000C70300006D
:10283000C4030000C1030000BE030000BB0300008E
:10284000B8030000B5030000B2030000AF030000AE
:10285000AC030000A9030000A6030000A3030000CE
:10286000A00300009C0300009903000096030000F1
:1028700093030000900300008D0300008A03000012
:102880008703000084030000800300007D03000034
:102890007A03000077030000740300007103000056
:1028A0006E0300006B030000670300006403000078
:1028B000610300005E0300005B030000580300009A
:1028C00055030000510300004E0300004B030000BD
:1028D0004803000045030000420300003F030000DE
:1028E0003B03000038030000350300003203000002
:1028F0002F0300002C030000290300002503000023
:10290000220300001F0300001C0300001903000045
:102910001603000013030000100300000C03000066
:102920000903000006030000030300000003000089
:10293000FD020000FA020000F7020000F4020000AD
:10294000F0020000ED020000EA020000E7020000D1
:10295000E4020000E1020000DE020000DB020000F1
:10296000D8020000D5020000D2020000CF02000011
:10297000CC020000C9020000C6020000C302000031
:10298000BF020000BC020000B9020000B602000055
:10299000B3020000B0020000AD020000AA02000075
:1029A000A7020000A5020000A20200009F02000092
:1029B0009C020000990200009602000093020000B1
:1029C000900200008D0200008A02000087020000D1
:1029D00084020000810200007E0200007C020000F0
:1029E000790200007602000073020000700200000D
:1029F0006D0200006A02000068020000650200002B
:102A0000620200005F0200005C0200005A02000047
:102A10005702000054020000510200004F02000063
:102A20004C0200004902000047020000440200007E
:102A3000410200003F0200003C0200003902000099
:102A40003702000034020000310200002F020000B3
:102A50002C020000290200002702000024020000CE
:102A6000220200001F0200001D0200001A020000E6
:102A700018020000150200001302000010020000FE
:102A80000E0200000B020000090200000602000016
:102A90000402000002020000FF010000FD0100002E
:102AA000FB010000F8010000F6010000F401000045
:102AB000F1010000EF010000ED010000EA0100005B
:102AC000E8010000E6010000E4010000E10100006F
:102AD000DF010000DD010000DB010000D901000082
:102AE000D7010000D4010000D2010000D001000095
:102AF000CE010000CC010000CA010000C8010000A6
:102B0000C6010000C4010000C2010000C0010000B5
:102B1000BE010000BC010000BA010000B8010000C5
:102B2000B6010000B4010000B2010000B1010000D4
:102B3000AF010000AD010000AB010000A9010000E1
:102B4000A8010000A6010000A4010000A2010000ED
:102B5000A10100009F0100009D0100009C010000F8
:102B60009A01000098010000970100009501000003
:102B70009401000092010000900100008F0100000C
:102B80008D0100008C0100008A0100008901000015
:102B9000880100008601000085010000830100001B
:102BA00082010000810100007F0100007E01000021
:102BB0007D0100007B0100007A0100007901000026
:102BC000780100007601000075010000740100002A
:102BD0007301000072010000710100006F0100002C
:102BE0006E0100006D0100006C0100006B0100002F
:102BF0006A0100006901000068010000670100002F
:102C0000660100006501000065010000640100002C
:102C1000630100006201000061010000600100002A
:102C2000600100005F0100005E0100005D01000026
:102C30005D0100005C0100005B0100005B01000021
:102C40005A0100005901000059010000580100001C
:102C50005801000057010000570100005601000014
:102C6000560100005501000055010000540100000C
:102C70005401000054010000530100005301000002
:102C800053010000520100005201000052010000F7
:102C900051010000510100005101000051010000EC
:102CA00051010000500100005001000050010000DF
:102CB00050010000500100005001000050010000D0
:102CC00050010000500100005001000050010000C0
:102CD00050010000500100005001000050010000B0
:102CE000510100005101000051010000510100009C
:102CF0005101000052010000520100005201000089
:102D00005301000053010000530100005401000072
:102D1000540100005401000055010000550100005D
:102D20005601000056010000570100005701000045
:102D3000580100005801000059010000590100002D
:102D40005A0100005B0100005B0100005C01000013
:102D50005D0100005D0100005E0100005F010000F8
:102D600060010000600100006101000062010000DC
:102D700063010000640100006501000065010000BE
:102D800066010000670100006801000069010000A1
:102D90006A0100006B0100006C0100006D01000081
:102DA0006E0100006F01000071010000720100005F
:102DB000730100007401000075010000760100003D
:102DC00078010000790100007A0100007B01000019
:102DD0007D0100007E0100007F01000081010000F4
:102DE00082010000830100008501000086010000CF
:102DF00088010000890100008A0100008C010000A8
:102E00008D0100008F010000900100009201000080
:102E10009401000095010000970100009801000056
:102E20009A0100009C0100009D0100009F0100002C
:102E3000A1010000A2010000A4010000A601000001
:102E4000A8010000A9010000AB010000AD010000D5
:102E5000AF010000B1010000B2010000B4010000A8
:102E6000B6010000B8010000BA010000BC0100007A
:102E7000BE010000C0010000C2010000C40100004A
:102E8000C6010000C8010000CA010000CC0100001A
:102E9000CE010000D0010000D2010000D4010000EA
:102EA000D7010000D9010000DB010000DD010000B6
:102EB000DF010000E1010000E4010000E601000084
:102EC000E8010000EA010000ED010000EF01000050
:102ED000F1010000F4010000F6010000F80100001B
:102EE000FB010000FD010000FF01000002020000E4
:102EF0000402000006020000090200000B020000AC
:102F00000E02000010020000130200001502000073
:102F1000180200001A0200001D0200001F0200003B
:102F20002202000024020000270200002902000003
:102F30002C0200002F0200003102000034020000C9
:102F400037020000390200003C0200003F0200008E
:102F50004102000044020000470200004902000054
:102F60004C0200004F020000510200005402000019
:102F7000570200005A0200005C0200005F020000DD
:102F80006202000065020000680200006A020000A0
:102F90006D02000070020000730200007602000063
:102FA000790200007C0200007E0200008102000025
:102FB00084020000870200008A0200008D020000E7
:102FC00090020000930200009602000099020000A7
:102FD0009C0200009F020000A2020000A502000067
:102FE000A7020000AA020000AD020000B00200002B
:102FF000B3020000B6020000B9020000BC020000EB
:10300000BF020000C3020000C6020000C9020000A7
:10301000CC020000CF020000D2020000D502000066
:10302000D8020000DB020000DE020000E102000026
:10303000E4020000E7020000EA020000ED020000E6
:10304000F0020000F4020000F7020000FA020000A3
:10305000FD0200000003000003030000060300005F
:10306000090300000C03000010030000130300001C
:1030700016030000190300001C0300001F030000DA
:103080002203000025030000290300002C03000098
:103090002F03000032030000350300003803000056
:1030A0003B0300003F030000420300004503000013
:1030B0000000000000000000000000000000000010
:1030C0003F400000000000000000300040003000E1
:1030D0004000000009000BC03D000BC03D0009008E
:1030E00018C024407FE0224031800000180024C036
:1030F0001B000D803240018003801C4027401C8053
:1031000007400040100060000000000000000000C8
:103110000000000000001F802040402000004020F0
:1031200020401F8000000000090006001F800600EC
:1031300009000000040004003F80040004000000B7
:103140000010006000000000000000000400040007
:103150000400040004000000000000400000000023
:1031600000000000002001C0060038004000000000
:103170001F802040204020401F80000000001040A1
:103180003FC000400000000018C021402240244001
:103190001840000010802040244024401B80000084
:1031A00002000D0011003FC0014000003C8024409F
:1031B00024402440238000001F80244024403440C9
:1031C000038000003000200027C0380020000000ED
:1031D0001B802440244024401B8000001C0022C08F
:1031E000224022401F800000000000000840000034
:1031F000000000000000000004600000000000006B
:10320000000004000A00110020804040090009006D
:103210000900090009000000000040402080110062
:103220000A000400180020002340240018000000B9
:103230001F802040274029401F400000004007C059
:1032400039000F0001C0004020403FC0244024400E
:103250001B8000001F802040204020403080000064
:1032600020403FC0204020401F80000020403FC041
:1032700024402E4030C0000020403FC024402E009B
:10328000300000000F0010802040224033800200F8
:1032900020403FC0040004003FC0204020402040A8
:1032A0003FC02040204000000060202020203FC080
:1032B0002000200020403FC024400B0030C02040B0
:1032C00020403FC020400040004000C03FC03C00C4
:1032D00003C03C003FC0000020403FC00C40230022
:1032E0003FC020001F802040204020401F80000061
:1032F00020403FC024402400180000001F802140CF
:10330000214020E01FA0000020403FC024402600B4
:1033100019C0004018C024402440224031800000E1
:10332000300020403FC020403000000020003F809F
:10333000004000403F80200020003E0001C0070008
:1033400038002000380007C03C0007C038000000EB
:10335000204039C0060039C020400000200038401D
:1033600007C0384020000000304021C026403840CF
:1033700020C00000000000007FE04020402000004E
:10338000000070000C00038000400000000040209E
:1033900040207FE0000000000000200040002000EE
:1033A00000000000001000100010001000100010BD
:1033B000000000004000000000000000000002804B
:1033C0000540054003C0004020003FC004400440C9
:1033D0000380000000000380044004400640000019
:1033E00000000380044024403FC0004000000380F0
:1033F0000540054003400000000004401FC0244079
:1034000024402000000002E0055005500650042032
:1034100020403FC00440040003C0004000000440BE
:1034200027C000400000000000100010041027E03A
:103430000000000020403FC00140070004C00440DD
:10344000204020403FC000400040000007C0040072
:1034500007C0040003C00000044007C0044004008B
:1034600003C00040000003800440044003800000CB
:10347000041007F0045004400380000000000380A3
:103480000440045007F00010044007C0024004004C
:1034900004000000000006400540054004C0000094
:1034A000000004001F80044000400000040007806A
:1034B0000040044007C000400400070004C0018031
:1034C00006000400060001C0070001C0060000005D
:1034D000044006C0010006C00440000004100710AC
:1034E00004E00180060004000000044005C006401E
:1034F000044000000000000004007BE040200000C9
:10350000000000000000FFF000000000000040206C
:103510007BE004000000000040008000400020002C
:10352000200040000000000000000000000000003B
:10353000000000000000000000001FCC000C000094
:1035400000000000000008003000600008003000AB
:1035500060000000022003FC1E20022003FC1E204D
:103560000220000000000E1811043FFF10840C78A8
:10357000000000000F0010840F3800C00778188486
:103580000078000000780F8410C411240E9800E425
:1035900000840008080068007000000000000000BF
:1035A0000000000000000000000007E018182004E0
:1035B00040020000000040022004181807E000004C
:1035C000000000000240024001800FF00180024034
:1035D000024000000080008000800FF80080008022
:1035E000008000000001000D000E0000000000003F
:1035F000000000000000008000800080008000804B
:10360000008000800000000C000C000000000000A2
:1036100000000000000000060018006001800600A5
:1036200018002000000007F0080810041004080823
:1036300007F000000000080408041FFC0004000458
:103640000000000000000E0C10141024104411841F
:103650000E0C000000000C18100411041104128854
:103660000C700000000000E00320042408241FFC6C
:103670000024000000001F98108411041104108819
:1036800010700000000007F0088811041104188869
:103690000070000000001C00100010FC13001C0053
:1036A0001000000000000E381144108410841144F2
:1036B0000E38000000000700088C104410440888F1
:1036C00007F00000000000000000030C030C0000E5
:1036D00000000000000000000001010600000000E2
:1036E00000000000000000800140022004100808D3
:1036F00010040000022002200220022002200220EA
:1037000002200000000010040808041002200140FC
:103710000080000000000E001200100C106C1080E1
:103720000F00000003E00C1813E4142417C4082849
:1037300007D000000004003C03C41C40074000E424
:10374000001C000410041FFC1104110411040E8855
:103750000070000003E00C1810041004100410089E
:103760001C10000010041FFC1004100410040808B2
:1037700007F0000010041FFC1104110417C410040A
:103780000818000010041FFC1104110017C01000DD
:103790000800000003E00C181004100410441C780A
:1037A0000040000010041FFC108400800080108482
:1037B0001FFC10040000100410041FFC100410046F
:1037C0000000000000030001100110011FFE1000A6
:1037D0001000000010041FFC110403801464181C66
:1037E0001004000010041FFC100400040004000476
:1037F000000C000010041FFC1F0000FC1F001FFC39
:103800001004000010041FFC0C04030000E010185A
:103810001FFC100007F0080810041004100408082A
:1038200007F0000010041FFC10841080108010802E
:103830000F00000007F0081810241024101C080ABC
:1038400007F2000010041FFC1104110011C0113018
:103850000E0C000400000E1C11041084108410448F
:103860001C3800001800100010041FFC1004100089
:103870001800000010001FF81004000400041004D9
:103880001FF8100010001E0011E0001C00701380D3
:103890001C0010001FC0103C00E01F0000E0103CA6
:1038A0001FC000001004180C163401C001C01634EB
:1038B000180C100410001C00130400FC13041C005E
:1038C000100000000804101C1064108413041C0471
:1038D000101800000000000000007FFE40024002BF
:1038E00040020000000030000C0003800060001C5B
:1038F0000003000000004002400240027FFE000082
:1039000000000000000000002000400040004000D7
:103910002000000000010001000100010001000181
:1039200000010001000040004000200000000000F5
:1039300000000000000000980124014401440144FB
:1039400000FC000410001FFC008801040104008832
:1039500000700000000000700088010401040104F0
:1039600000880000000000700088010401041108B4
:103970001FFC0004000000F801440144014401441C
:1039800000C800000000010401040FFC1104110430
:1039900011001800000000D601290129012901C9E0
:1039A0000106000010041FFC008401000100010456
:1039B00000FC000400000104190419FC00040004C8
:1039C000000000000000000300010101190119FEC0
:1039D0000000000010041FFC0024004001B4010C92
:1039E000010400000000100410041FFC0004000487
:1039F00000000000010401FC0104010001FC0104BD
:103A0000010000FC010401FC00840100010001042C
:103A100000FC0004000000F801040104010401049A
:103A200000F80000010101FF008501040104008885
:103A3000007000000000007000880104010401050E
:103A400001FF00010104010401FC008401040100E4
:103A500001800000000000CC012401240124012485
:103A60000198000000000100010007F801040104B2
:103A700000000000010001F8000400040004010837
:103A800001FC0004010001800170000C00100160C5
:103A90000180010001F0010C003001C00030010C78
:103AA00001F0010000000104018C00740170018C20
:103AB00001040000010101810171000E0018016084
:103AC0000180010000000184010C013401440184E3
:103AD000010C0000000000000000000001003EFC9E
:103AE000400240020000000000000000FFFF000054
:103AF000000000000000400240023EFC0100000007
:103B000000000000000060008000800040004000D5
:103B10002000200000000000000000000000000065
:103B20000000000000000000000000000000000095
:103B30000000000000000000000000000000000085
:103B4000000000000000000F80380FFE380F8038A2
:103B50000000000000000000000000000000000065
:103B600000000100000600000C00003800003100D9
:103B7000000600000C0000380000300000000000CB
:103B80000000000061800067F807F9800061800094
:103B900061800061800061800067F807F980006142
:103BA0008000000000000000000001C0E003E0F021
:103BB0000630080418081FFFFE040E080787F003EC
:103BC00081E000000000000001F000060C00040489
:103BD00008060C7001F9C0000E00003BE000EC1874
:103BE000070808040C180003E00000000001E000D2
:103BF00007F003F818041C0804170807E1D003C0F5
:103C0000E00023B0003C0800200800001000000085
:103C10000000000100003100003200001C00000024
:103C20000000000000000000000000000000000094
:103C30000000000000000000000000000000000084
:103C4000000000007F0001FFC00780F00C0018108A
:103C5000000420000200000000000020000210000C
:103C6000040C00180780F001FFC0007F0000000076
:103C70000000000000000000000000000000000044
:103C80004200006600006600003C0000180003FFD0
:103C9000C0001800003C0000660000660000420002
:103CA00000000000080000080000080000080000F4
:103CB000080001FFC000080000080000080000081C
:103CC0000000080000000000000100003100003288
:103CD00000001C00000000000000000000000000C8
:103CE00000000000000000000000000008000008C4
:103CF000000008000008000008000008000008009C
:103D0000000800000800000800000000000000009B
:103D100000000000380000380000380000000000FB
:103D20000000000000000000000000000000000093
:103D300000000000000600001C0000700001800070
:103D40000E0000380000C0000700001C000030001A
:103D500000000000000000007F8001FFE003807091
:103D6000060018040008040008060018038070010B
:103D7000FFE0007F80000000000000000000010064
:103D80000801000801000803FFF807FFF800000819
:103D90000000080000080000000000000000000112
:103DA000C03802C058040098040118040218040422
:103DB00018061C1803F81801E0F8000000000000C5
:103DC00000000001C0E003C0F0040008040808047B
:103DD000080806180803F41801E7F00001E00000E5
:103DE00000000000000000000300000D00001100B2
:103DF00000610000810803010807FFF80FFFF800C9
:103E000001080001080000000000000000E007FCBD
:103E1000D00608080610080610080610080618380C
:103E2000060FF00607C000000000000000000000C0
:103E30003F8001FFE00384300208180410080410DA
:103E400008041008071810030FF00007C000000056
:103E500000000000000003C000070000060000068C
:103E600000F80607F806180006E000070000060044
:103E70000000000000000001E1E003F7F00634104C
:103E8000041808041808040C08040C080616180383
:103E9000F3F001C1E000000000000000F80003FCA6
:103EA000300306380402080402080402080404105F
:103EB0000308F001FFC0007F0000000000000000C8
:103EC00000000000000000000000000070380070DA
:103ED0003800703800000000000000000000000002
:103EE00000000000000000000000000000000000D2
:103EF000301A00301C00000000000000000000002C
:103F00000000000000000000000000080000140095
:103F100000220000410000808001004002002004D7
:103F2000001008000800000000000000210000212F
:103F300000002100002100002100002100002100DC
:103F4000002100002100002100000000000000000E
:103F5000000008000804001002002001004000805A
:103F60008000410000220000140000080000000052
:103F700000000003C00004C000040000080038086E
:103F80000F380808380810000C300007E00003C0A4
:103F900000000000000000003F8000FFE003807090
:103FA000020F1006708804C088048308047F88020A
:103FB000C09003012000FE4000000800001800012E
:103FC000F8003E0801C20007020007E20000FE0000
:103FD000001FC80001F800003800000804000807AE
:103FE000FFF807FFF8040808040808040808040894
:103FF0000806180803F41801E7F00001E0000000CB
:10400000000000003F8001FFE00380700200180400
:1040100000080400080400080400100600200780BF
:10402000C000000004000807FFF807FFF8040008BC
:104030000400080400080400180200100380700146
:10404000FFE0007F8000000004000807FFF807FF82
:10405000F8040808040808040808040808043E08CE
:1040600004000806001801006000000004000807B2
:10407000FFF807FFF8040808040800040800040813
:1040800000043E0006000006000001800000000061
:10409000000000003F8001FFE0038070060018046C
:1040A00000080402080402080203F00783F000027B
:1040B0000000020004000807FFF807FFF8040808E2
:1040C00000080000080000080000080004080807B5
:1040D000FFF807FFF80400080000000000000400DB
:1040E0000804000804000807FFF807FFF8040008A8
:1040F00004000804000800000000000000000000A8
:104100000006000007000001040001040001040093
:104110000307FFFE07FFFC0400000400000400008A
:1041200004000807FFF807FFF8040C080018000057
:104130003E0004C7800503C80600F80400380400E8
:104140001800000804000807FFF807FFF80400083B
:104150000000080000080000080000080000080037
:10416000001800006000000004000807FFF8078046
:104170000807FC00007FC00003F80007C0007800BB
:1041800007800807FFF807FFF80400080400080785
:10419000FFF807000803C00000E000003800001E20
:1041A000000007000001C00400F007FFF804000051
:1041B000000000007F8001FFE0038070060018040B
:1041C000000804000806001803003001FFE0007F2B
:1041D0008000000004000807FFF807FFF804040847
:1041E000040400040400040400040400060C00039A
:1041F000F80001F000000000000000007F8001FFD7
:10420000E00380700600880400880400C806003CB3
:1042100003003E01FFE6007F840000000400080761
:10422000FFF807FFF8040808040800040C00040F56
:1042300000040BC00610F003F03801E0080000088D
:1042400000000001E0F803F0300630100418080404
:104250001808040C08040C080206180207F007816D
:10426000E0000000018000060000040000040000DF
:1042700004000807FFF807FFF80400080400000422
:10428000000006000001800004000007FFE007FFB7
:10429000F0040018000008000008000008000008F2
:1042A00000000804001007FFE004000004000006FE
:1042B000000007E00007FE00041FE00001F8000016
:1042C000380001E0043E0007C000060000040000C2
:1042D00004000007E00007FFC0041FF80007C00744
:1042E000F80007FF80043FF80007C004F80007004B
:1042F0000004000000000004000806001807C07851
:1043000005F1C8003E00001F800463E80780F8063E
:1043100000180400080000000400000600000780E8
:104320000007E008047C08001FF80007F8001808E0
:1043300004E008070000060000040000000000017F
:1043400000080600380400F80403E8040F08047CA1
:104350000805F00807C00807001804006000000006
:104360000000000000000000000000000000003F0E
:10437000FFFE200002200002200002200002200098
:10438000020000000000000000000800000700001C
:1043900000C0000038000006000001C0000030002E
:1043A000000E0000010000000000000000002000DE
:1043B000022000022000022000022000023FFFFE37
:1043C00000000000000000000000000000000000ED
:1043D0000000000000080000100000300000200075
:1043E0000030000010000008000000000000000085
:1043F00000000100000100000100000100000100B8
:1044000000010000010000010000010000010000A7
:10441000010000010000000000000000002000007A
:10442000200000100000100000000000000000004C
:1044300000000000000000000000000000F0001973
:10444000F8001B1800220800260800240800241089
:10445000003FF8001FF800000800001800000004EA
:10446000000007FFF80FFFF00018180010080020E8
:1044700008002008003018001FF0000FC0000000E6
:104480000000000007C0001FF000183000200800E6
:104490002008002008003C08001C100000600000FC
:1044A000000000000000000007C0001FF0003818E6
:1044B00000200800200800200804101007FFF80F53
:1044C000FFF00000100000000000000000000007E6
:1044D000C0001FF00012300022180022080022083D
:1044E000003208001E10000E200000000000000036
:1044F000200000200800200801FFF803FFF8062034
:104500000804200804200807200003000000000021
:1045100000000000000E000E6E001FF30031B1001D
:1045200020B10020B1003191001F13002E1E002089
:104530000E00300000000004000807FFF80FFFF82D
:10454000001008002000002000002008003FF800B4
:104550001FF800000800000000000000000000201C
:1045600008002008002008063FF8063FF800000871
:10457000000008000008000000000000000000002B
:1045800000000000030000030020010020010020C3
:1045900003063FFE063FFC00000000000000000094
:1045A00000000004000807FFF80FFFF80001880072
:1045B0000300002FC00038F8002038002008000059
:1045C00008000000000000000000040008040008CB
:1045D00004000807FFF80FFFF800000800000800BB
:1045E0000008000000000000002008003FF8003F25
:1045F000F8001008002000003FF8003FF800100805
:10460000002000003FF8003FF80000080000000014
:104610002008003FF8003FF80010080010000020BC
:1046200000002008003FF8001FF80000080000000C
:104630000000000007C0000FF00018300030080034
:104640002008002008003008001830000FF0000794
:10465000C0000000000000002001003FFF003FFFFD
:104660000010110020090020080020080030380048
:104670001FF0000FC00000000000000007C0001F76
:10468000F000381800200800200800200900101150
:10469000001FFF003FFF0000010000000020080095
:1046A0002008002008003FF8003FF800080800102C
:1046B000080020080020000030000030000000004A
:1046C000000000000000000C78001E1800330800F5
:1046D00023080021080021880021980030F00038CC
:1046E000600000000000000020000020000020000A
:1046F00000FFF003FFF80020080020080020080059
:104700000030000000000000000000002000003F1A
:10471000F0007FF8000018000008000008002010DA
:10472000003FF8007FF000001000000000000000D3
:104730002000003000003C00003F800023F000001B
:1047400078000070002380003C0000300000200052
:10475000002000003C00003FE00023F80000E000E3
:104760002700003E00003FE00021F80001E0003E8D
:104770000000200000000000200800200800383859
:10478000003E680027800003C8002CF8003838007D
:104790002018002008000000000000002000003069
:1047A00003003C01003F830023EC000070002380E5
:1047B000003C00002000002000000000000000007D
:1047C00000000038080020380020F80023E8002FFF
:1047D00088003E0800380800201800007000000023
:1047E00000000000000000000000000000000000C9
:1047F00008000014001FF7FC300006200002000033
:1048000000000000000000000000000000000000A8
:10481000000000000000FFFFFF000000000000009B
:104820000000000000000000000000000000200068
:10483000023000061FF7FC00140000080000000012
:104840000000000000000000000000000000001850
:104850000000600000400000400000200000100048
:10486000000800000400000400000C00001000001C
:1048700008200620407E31800004708444884890DF
:1048800050A043FF50A0489044887084000400006A
:104890000408040C0408FFF0041004110006FFF8DB
:1048A000000000007FFC00000000FFFF000000008F
:1048B000020022002A0026FFA2927E9222922292D9
:1048C00022927E92A29226FF2A002200020000007D
:1048D000000000000FF00820082008200820FFFF3B
:1048E00008200820082008200FF000000000000029
:1048F0002410246025807FFFC500448000204420D0
:10490000332000200020FFFF004000400040000056
:10491000082008220841FFFE088009011001110249
:1049200011C21134FF08111411621181100100002D
:1049300050490008000000204800000094150008BD
:10494000984900084800002000080000A41500084D
:104950000000000000000000000000000000000057
:10496000000000000008000000000000000000003F
:104970000000000000000000000000000000000037
:104980000000000000000000000000000000000027
:084990000000344300000000A8
:040000050800018965
:00000001FF
